:020000040800F2
:10000000301C0020450100088B2B000857270008F2
:10001000892B00080907000875320008000000005D
:10002000000000000000000000000000DF2C0008BD
:1000300067070008000000008D2B0008E12C000875
:100040005F0100085F0100085F0100085F01000810
:100050005F0100085F0100085F0100085F01000800
:100060005F0100085F0100085F0100085F010008F0
:100070005F0100080D0700085F010008190700086C
:10008000250700085F0100085F0100085F01000804
:100090005F0100085F0100085F0100085F010008C0
:1000A0005F0100085F0100085F0100085F010008B0
:1000B0005F0100085F0100085F0100085F010008A0
:1000C0005F0100085F0100085F0100085F01000890
:1000D0005F010008513200085D32000869320008F3
:1000E000690700085F0100085F0100085F01000860
:1000F0005F0100085F0100085F0100085F01000860
:100100005F0100085F0100085F0100085F0100084F
:100110001D2E0008292E0008692D0008752D0008E5
:100120005F0100085F010008310700085F01000857
:10013000DFF80CD000F0D6FA00480047FD40000878
:10014000301C00200648804706480047FEE7FEE7CF
:10015000FEE7FEE7FEE7FEE7FEE7FEE7FEE7FEE777
:10016000672D000831010008202A04DB203A21FA1B
:1001700002F00021704721FA02F3D040C2F12002C0
:10018000914008431946704740EA01039B0703D09A
:1001900009E008C9121F08C0042AFAD203E011F8C6
:1001A000013B00F8013B521EF9D27047D2B201E088
:1001B00000F8012B491EFBD270470022F6E710B56C
:1001C00013460A4604461946FFF7F0FF204610BDC5
:1001D000421E12F8013F002BFBD111F8013B02F83F
:1001E000013B002BF9D170472DE9FE4F804681EA93
:1001F0000300C00F0C46009021F0004123F00045A1
:10020000B8EB0200A94105D24046214690461C4663
:100210000B46024623F00040104347D0270DC7F39A
:100220000A00C3F30A510290401A019040286BDA89
:10023000C3F3130040F4801B0098924620B10023C2
:10024000D2EB030A63EB0B0B01985946C0F1400255
:10025000504600F098F906460D4650465946019A18
:1002600000F0A0F910EB08006141002487EA115268
:1002700084EAE7731A4340D0009A62B3019A012AD4
:100280004FEA075215DC001B61EB02014FF0004200
:1002900002EA0752CDE90042001C41F580113246C6
:1002A0002B4600F0A0F903B0BDE8F08F4046214690
:1002B000F9E7001B61EB0201001C41F580130018F7
:1002C0005B412018A2F5001747EB030140EAD57007
:1002D000B6196D4111E06D084FEA360645EAC07562
:1002E0004FEA0752001B61EB0201001C41F580112F
:1002F00049084FEA30000019514132462B4603B0FD
:10030000BDE8F04F00F060B90098012240000023E2
:10031000D0EB020263EBE073009821464FEAE074F1
:10032000B8EB000061EB0401E9E783F000435BE711
:1003300081F0004158E72DE9FE4F81EA030404F003
:10034000004421F0004100944FF0000B23F00043E3
:1003500050EA01045ED052EA03045BD0C3F30A54AE
:10036000C1F30A552C44A4F2F3340194A0FB0254C7
:10037000C1F3130141F48011C3F3130343F4801359
:1003800001FB024400FB034E840A970A44EA8154AD
:1003900047EA8357A4FB076802958D0A05FB07858A
:1003A0004FEA932C04FB0C542705029D4FEA065894
:1003B00047EA1637B5EB08056EEB070C870E920E71
:1003C00047EA811742EA8312A7FB0201B6EB0B0151
:1003D00064EB00042B0D43EA0C335E1844EB1C5015
:1003E000DA465146E7FB0201C5F313044FEA0B332B
:1003F00043EA14534FEA0432019C43EA0603A4F192
:100400000C040294009CCDE900B400F0ECF803B0B9
:10041000BDE8F08F00200146F9E72DE9F04D81EAB3
:10042000030404F0004B21F0004514464FF0000A8D
:1004300023F0004150EA050220D054EA01021DD009
:10044000C5F30A570246C5F31303C1F31300C1F302
:100450000A5640F4801543F48013A7EB0608101BDE
:10046000D64608F2FD3873EB050002D308F1010807
:1004700001E092185B41B8F1000F03DA0020014659
:10048000BDE8F08D00204FF48011064684460EE052
:10049000171B73EB050705D3121B63EB050306431C
:1004A0004CEA010C49084FEA300092185B4150EACF
:1004B0000107EDD152EA030012D082EA040083EA78
:1004C0000501084305D0101BAB4106D201220023D1
:1004D00006E000224FF0004302E06FF001025310EB
:1004E0001AEB06004CEB085110EB0A0041EB0B0134
:1004F000BDE8F04D00F068B830B50B46014600206D
:100500002022012409E021FA02F59D4205D303FAD5
:1005100002F5491B04FA02F52844151EA2F1010256
:10052000F1DC30BD2DE9F05F0546002092469B4688
:1005300088460646814640241BE0284641464746F9
:100540002246FFF711FE53465A46C01A914110D376
:1005500011461846224600F016F82D1A67EB0108DE
:100560004F4622460120002100F00DF817EB00094C
:100570004E41201EA4F10104DFDC484631462A46E4
:100580004346BDE8F09F202A04DB203A00FA02F13E
:10059000002070479140C2F1200320FA03F3194371
:1005A00090407047202A06DBCB17203A41FA02F030
:1005B00043EAE07306E041FA02F3D040C2F12002C0
:1005C000914008431946704710B5141E73F100049A
:1005D00008DA401C41F1000192185B411A4301D135
:1005E00020F0010010BD2DE9F04D92469B4611B15F
:1005F000B1FA81F202E0B0FA80F220329046FFF7C1
:10060000C2FF04460F4640EA0A0041EA0B01534686
:100610005A46084313D0114653EA010019D0C8F1D5
:1006200040025046FFF7A0FD05460E46504659468B
:100630004246FFF7A8FF084305D0012004E020460A
:100640003946BDE8F08D0020054346EAE0762C43AC
:1006500037430A986305E40AA0EB08000022FD0A6C
:1006600044EA47540A3002D500200146E9E7010573
:1006700010196941DDE9084500196941BDE8F04DEF
:10068000A2E7C1F30A52C1F3130140F2FF3341F470
:1006900080119A4202DA00200146704740F233434B
:1006A0009A42A2F2334202DC5242FFF75DBDFFF7ED
:1006B0006ABF000030B5041E71F1000404DB4FF086
:1006C0000044404264EB0101141E73F1000405DB99
:1006D0001C464FF00043524263EB0403994208BFAB
:1006E000904230BD064C074D06E0E06840F0010343
:1006F00094E8070098471034AC42F6D3FFF71CFD8E
:10070000B4430008D4430008FEE70000014800F0AD
:10071000F5B800009C170020014800F0EFB8000079
:1007200014170020014800F0E9B800005817002015
:10073000014800F0E3B80000D016002030B590F872
:1007400040500124AC40C56B6C6004686360436832
:10075000102B036803D099600068C26030BD9A60B6
:100760000068C16030BD704710B54FF4805420461A
:1007700000F074FA0148046010BD00001404014048
:1007800072B6FEE710B590F821100022022905D0BC
:100790000421816380F82020012010BD01680B68CE
:1007A00023F00E030B6001680B6823F001030B605C
:1007B00090F84030C46B012101FA03F3636080F8C4
:1007C000211080F82020104610BD00002DE9F05FB8
:1007D00090F821100024022903D004218163012410
:1007E00085E001680A6822F00E020A6001680A6862
:1007F00022F001020A603F4E3E4FB215DFF8F4C00E
:10080000DFF8F090DFF8ECA0DFF8E8B0DFF8E4E024
:100810000168783F13011502ACF1640CA9F150098D
:10082000AAF13C0AABF1280BAEF1140E4FF480187C
:10083000B14227D9B9420ED0614512D049451DD0E9
:10084000514518D0594518D0714501D1424615E09F
:10085000294EB14201D1012210E0274E1436B14297
:1008600001D110220AE0244E2836B14206D0224A95
:100870003C32914201D11A4600E02A461E49091F26
:100880000A602BE0B94213D0614517D0494522D008
:1008900051451DD059451DD0714501D142461AE040
:1008A000B14202D14FF0807215E0134EB14201D136
:1008B000012210E0104E1436B14201D110220AE09C
:1008C0000D4E2836B14206D00B4A3C32914201D13E
:1008D0001A4600E02A46074980394A60012180F81B
:1008E0002110002180F82010416B01B1884720467B
:1008F000BDE8F09F80000240080402402DE9F05F4F
:10090000C16B0A6801680B68046C4FF0040808FAB0
:1009100004F8844D844E854FDFF814C2DFF814923A
:10092000DFF814A2DFF814B2DFF814E218EA020FBD
:1009300065D05FEA437862D50A68920603D40A68F4
:1009400022F004020A60DFF8F0814FF4806201684F
:1009500008F1140813011402414524D9A9420DD00D
:10096000B1420FD0B9421AD0614515D0494515D0D2
:10097000514501D1120312E0594501D104220EE084
:10098000714501D140220AE06D4D1435A94206D0CF
:100990006B4A2832914201D11A4600E0224667494B
:1009A000091F0A6029E0A94213D0B14215D0B9420B
:1009B00020D061451BD049451BD0514502D14FF491
:1009C000800217E0414502D14FF0806212E05945A4
:1009D00001D104220EE0714501D140220AE0584DB8
:1009E0001435A94206D0564A2832914201D11A46FE
:1009F00000E022464B4908394A60C16A71E04FF075
:100A0000020808FA04F818EA020F70D05FEA837847
:100A10006DD50A68920606D40A6822F00A020A60B6
:100A2000012180F82110DFF810814FF40072016875
:100A300008F1140813011402414524D9A9420DD02C
:100A4000B1420FD0B9421AD0614515D0494515D0F1
:100A5000514501D1120312E0594501D102220EE0A5
:100A6000714501D120220AE0354D1435A94206D046
:100A7000334A2832914201D11A4600E022462F49DA
:100A8000091F0A6029E0A94213D0B14215D0B9422A
:100A900020D061451BD049451BD0514502D14FF4B0
:100AA000001217E0414502D14FF0007212E05945A3
:100AB00001D102220EE0714501D120220AE0204D31
:100AC0001435A94206D01E4A2832914201D11A4655
:100AD00000E02246134908394A60002180F82010BE
:100AE000816A00291CD0BDE8F05F0847FFE70825B0
:100AF000A540154214D01A0712D50A6822F00E023A
:100B00000A6090F84020C36B012101FA02F25A609A
:100B1000816380F82110002180F82010016BE0E74C
:100B2000BDE8F09F080002401C0002403000024077
:100B300044000240580002406C0002400804024099
:100B40001C04024030B560B11A4B026814219A426D
:100B500009D2194B1344B3FBF1F189000164174921
:100B60000AE0012030BD134B5B421344B3FBF1F1AB
:100B7000890001640F490839C163022180F82110FE
:100B8000136843F6F0718B43F0E901142143D0E977
:100B900002452C432143046921434469214384696C
:100BA00021431943116000214163012242770177FB
:100BB000084630BD08040240F8FFFDBF00000240B7
:100BC00070B5044690F82000002501280CD00120C3
:100BD00084F8200094F821600020012E06D084F8CB
:100BE00020000225284670BD022070BD022684F830
:100BF0002160A0632068066826F001060660204692
:100C0000FFF79CFDE06A00282068016802D041F0EF
:100C10000E0106E021F0040101602068016841F046
:100C20000A0101602068016841F001010160D9E713
:100C300010B54FF48054A0420BD10A2003F048F8BD
:100C40002146044800F012F9002802D1024901208F
:100C5000487010BD000C014000000020044910B590
:100C60000A68024202D00860FFF7E2FF10BD0000F0
:100C7000140401402DE9F84FDFF8C8910024A9F1D0
:100C8000040B23460F2709F1040AABF1040ED1E04F
:100C90000125A54006EA0502AA4276D1DFF8A8C1DF
:100CA0004E68A6EB0C0866452BD00DDC032E34D025
:100CB00005DC36B3012E19D0022E2FD11BE0112EE8
:100CC00016D0122E2AD119E0B8F5881F19D006DCEB
:100CD000B8F5803F15D0B8F5801F1FD111E0B8F5E9
:100CE000001F0ED0B8F5041F18D10AE0CB6815E03C
:100CF000CB681B1D12E0CB6808330FE0CB680C33C8
:100D00000CE08B682BB1012B4FF0080303D0456139
:100D100004E0042302E0056100E00023FF2A01D87B
:100D2000064601E000F104064FEA840501D9A5F169
:100D30002005D6F8008007FA05FC28EA0C0803FA1B
:100D400005F548EA0508C6F800804D68ED0070D545
:100D50003E4DAE6946F00106AE61AD6924F0030672
:100D600005F0010500953A4D06EB050CDCF808503E
:100D7000A607360F07FA06F825EA0805DFF8D4803B
:100D8000404503D14FF0000825E052E0DFF8C8806D
:100D9000404502D14FF001081DE0DFF8C08040451A
:100DA00002D14FF0020816E0DFF8B480404502D1CE
:100DB0004FF003080FE0DFF8AC80404502D14FF060
:100DC000040808E0DFF8A080404502D14FF0050894
:100DD00001E04FF0060808FA06F848EA0508CCF8E2
:100DE00008804D68D9F80060ED024D4601D51643E4
:100DF00000E096432E604D68DAF80060AD0255467B
:100E000001D5164300E096432E604D68DBF8006084
:100E1000AD035D4601D5164300E096432E604D6854
:100E2000DEF80060ED03754601D5164300E09643F9
:100E30002E60641C0A681646E2407FF429AFBDE8C4
:100E4000F88F00000804014000001110001002405B
:100E50000000014000080140000C0140001001406A
:100E60000014014000180140001C01408068084047
:100E700000D0012070470AB1016170470904FBE707
:100E800001488068704700008000002070B50400B1
:100E900013D021684CF6CC400860216845F25550CB
:100EA0000860D4E9000141602168A0688860FFF70C
:100EB000E7FF054641F23C360DE0012070BD00BF62
:100EC000FFF7DEFF401BB04205D92068C0688007ED
:100ED00001D0032070BD2068C0688007F0D1216870
:100EE0004AF6AA200860002070BD00684AF6AA21D0
:100EF00001600020704700000248816802781144B8
:100F00008160704780000020074810B5016841F0FB
:100F100010010160032000F079F8032000F006F8CA
:100F200000F024F8002010BD0020024070B50D4DE7
:100F300004464FF47A712878B1FBF0F00A49096849
:100F4000B1FBF0F000F0F1FC48B9102C07D2002200
:100F50002146501E00F03AF800206C6070BD012060
:100F600070BD0000800000208C0000200E4808B5F5
:100F7000816941F001018161816901F00101009104
:100F8000C16941F08051C161C06900F0805000909A
:100F9000052000F03BF80548416821F0E06141F090
:100FA0000071416008BD00000010024000000140D7
:100FB000002809DB00F01F02012191404009800058
:100FC00000F1E020C0F8001170470000F0B40E4BB3
:100FD0001B680C46C3F30223C3F10705042D00D997
:100FE0000425191D072901D2002300E0DB1E01267C
:100FF00006FA05F1491E214099409E40761E164092
:101000003143F0BC02F04AB90CED00E0064900F0B3
:10101000070208684FF6FF03184040EA0220034A1F
:1010200010430860704700000CED00E00000FA0576
:10103000014901200862704700000E4210B50146C8
:101040000020284C04292FD00BDC012930D00229A4
:1010500029D100F06BF96168C1F38131491C490065
:101060001FE0082920D010291DD161682268D20113
:1010700019D51D48C1F38342C903805C0AD5616854
:10108000194AC1F34041921E515C184AB2FBF1F17A
:10109000484301E0164948436168490203D44000CF
:1010A0000321B0FBF1F010BDBDE8104000F04EB9D7
:1010B000226AC2F30121012903D1920701D5C80395
:1010C00010BD022905D1626A920702D549F6404057
:1010D00010BD0329FCD121688903F9D54FF22440C2
:1010E00010BD0000001002404843000800127A00C2
:1010F00000093D002DE9F84305460078354CC0074E
:1011000054D0E0690026C00008D4E06940F0805067
:10111000E061E069012600F0805000902E480168EF
:10112000C90512D40168804641F480710160FFF75F
:10113000A7FE074605E000BFFFF7A2FEC01B64281C
:1011400023D8D8F80000C005F6D5206A10F4407006
:1011500021D0A98801F4407181421CD0206A1F4926
:10116000012220F440700A6000220A602062C00759
:1011700011D0FFF785FE074641F2883808E000BF2E
:10118000FFF77EFEC11B414502D90320BDE8F8836D
:10119000206A8007F4D5206A696820F4407008430B
:1011A00020621EB1E06920F08050E061287880075D
:1011B00005D56068A96820F440400843606028783D
:1011C000C00605D56068696920F480000843606046
:1011D0000020DBE700100240007000404004424263
:1011E0002DE9F0470F46050061D0434E306800F00E
:1011F0000700B84209D2306820F007003843306059
:10120000306800F00700B84251D128683B4C810794
:1012100012D5400703D5606840F4E060606028782C
:10122000000703D5606840F4605060606068A9689A
:1012300020F0F000084360602878C00728D0686874
:10124000012810D02168022810D0890700292EDA41
:10125000616821F0030101436160FFF711FE8046E0
:1012600041F288390DE021688903EFE78901EDE754
:10127000FFF706FEA0EB0801494502D90320BDE8AF
:10128000F0876068696800F00C00B0EB810FEFD167
:10129000306800F00700B8420BD9306820F0070032
:1012A00038433060306800F00700B84201D00120B8
:1012B000E5E72878400705D56068E96820F4E06034
:1012C000084360602878000706D56068296920F423
:1012D000605040EAC100606000F038F86168084A78
:1012E000C1F30311515CC840064908600648006814
:1012F000FFF71CFE0020C2E7002002400010024061
:10130000584300088C000020840000200448054950
:1013100000684968044AC1F30221515CC840704723
:101320008C00002000100240684300080448054972
:1013300000684968044AC1F3C221515CC840704743
:101340008C00002000100240684300080E4A5168DB
:101350000E4801F00C03042B11D0082B0FD10C48C0
:10136000C1F38343C903C05C0AD55168084AC1F37D
:101370004041921E515C054A5043B0FBF1F070476A
:1013800004494843704700000010024000127A00F0
:101390003643000800093D002DE9F84F040070D0E5
:1013A0002078C04DC00749D06868C0F3810001288B
:1013B00007D06868C0F38100022809D16868C003BB
:1013C00006D52868800339D560680028E7D035E065
:1013D0006068B0F5803F0BD010B1B0F5A02F11D0F0
:1013E000286820F480302860286820F4802002E0FB
:1013F000286840F480302860606890B1FFF740FDB5
:1014000006460AE0286840F480202860F0E700BF24
:10141000FFF736FD801B642873D828688003F7D552
:101420000CE0FFF72DFD064605E000BFFFF728FDA5
:10143000801B6428F0D828688003F7D420789A4E5F
:1014400080074FF001094FF0000839D5686810F0A7
:101450000C0F07D06868C0F38100022809D16868C2
:10146000C00306D42868800714D52069012808D154
:1014700010E02069B0B1C6F80090FFF701FD074603
:1014800005E00AE1FFF7FCFCC01B0228C4D828686D
:101490008007F7D52868616920F0F80040EAC100AC
:1014A00028600DE0C6F80080FFF7EAFC074604E07C
:1014B000FFF7E6FCC01B022823D828688007F7D472
:1014C000207800072CD57948A169D9B1C0F80090DF
:1014D000FFF7D6FC074604E0FFF7D2FCC01B02284A
:1014E0000FD8686A8007F7D571484FF4FA51006841
:1014F000B0FBF1F0009000BF0098411E0091FAD2BD
:101500000EE080E0C0F80080FFF7BAFC074604E078
:10151000FFF7B6FCC01B022875D8686A8007F7D4AD
:101520002078400760D5E8690027C00008D4E86942
:1015300040F08050E861E869012700F08050009099
:101540005C480168C90513D40168834641F4807181
:101550000160FFF795FC824606E000BFFFF790FCB4
:10156000A0EB0A0064284ED8DBF80000C005F5D5D2
:10157000E06801280AD008B1052813D0286A20F0B5
:1015800001002862286A20F0040002E0286A40F086
:1015900001002862E06841F2883B98B1FFF770FCD7
:1015A00082460BE0286A40F004002862EEE700BFA4
:1015B000FFF766FCA0EB0A0159455AD8286A800754
:1015C000F6D50CE0FFF75CFC824605E0FFF758FC1F
:1015D000A0EB0A0159454CD8286A8007F6D41FB100
:1015E000E86920F08050E861E06988B36968C1F378
:1015F0008101022944D00228C6F8608004D0FFF798
:101600003FFC044638E034E0FFF73AFC074604E0CC
:10161000FFF736FCC01B02282BD828688001F7D4BE
:10162000206AB0F5803F05D16868A16820F40030D9
:1016300008436860D4E908010843696821F474111B
:1016400008436860C6F86090FFF71AFC044606E09D
:1016500025E000BFFFF714FC001B022809D828680A
:101660008001F7D51BE000BFFFF70AFC001B022832
:1016700002D90320BDE8F88F28688001F4D40EE079
:101680000128F7D06868226A00F48031914204D1C1
:10169000616A00F47010884201D00120EAE700205E
:1016A000E8E700000010024000004242800442428D
:1016B0008C0000200070004070B5040003D0607CF6
:1016C000002610B105E0012070BD2674204600F010
:1016D0003DF802206074204600F00AF9042550BB52
:1016E000204601F05DFA30BB2068416821F0070117
:1016F0004160A06820B11448016821F00101016037
:101700001148001F0168A26821F460711143016053
:101710006068411C04D10120FFF790FC58B1401EC5
:101720002268C0F303419160216880B2C8602046FE
:1017300001F050FA08B16574C5E7E67301206073E3
:10174000A0736074002070BD306C004008B5006864
:10175000084988420DD1FFF76BFC0748C16941F089
:101760000061C161C069054900F00060009001207E
:10177000086008BD00280040001002403C044242BE
:101780002DE9F0410D4604003BD0C5B3207C012873
:101790003AD04FF0010884F8108002206074E87895
:1017A00072B301F0F4F9E073687801F0F0F9607356
:1017B000A87801F0ECF9A073C2B2617BE07B01F084
:1017C0003BFA20732870204601F026FA4FF461613D
:1017D000B0FBF1F1002518292DD91822B1FBF2F147
:1017E000A1EB011101EB4101C1EB011100EBC116AD
:1017F0003146204601F05FFA0427C8B90BE000E04B
:1018000004E00120BDE8F0810220FBE7E073687886
:101810006073A878CFE7204601F0F7F9411C0AD0A1
:10182000B04208D206490144204601F030FA10B116
:1018300067742574E5E784F8118025740020E1E7DA
:10184000805101002DE9F0410D46040024D01DB364
:10185000207C012823D04FF0010884F8108002205A
:1018600060742878EAB101F092F94FF4616100FBED
:1018700001F6687801F08BF9C0EB001006EB8006EA
:10188000A87801F084F935182946204601F013FAAA
:101890000026042710BB0FE00120BDE8F0810220E4
:1018A000FBE74FF4616148436978C1EB011100EB3C
:1018B0008100A9784518E7E72068416821F0050113
:1018C0004160204601F0A1F9411C0AD0A84208D28B
:1018D00006490144204601F0DAF910B16774267414
:1018E000DAE784F8118026740020D6E780510100E1
:1018F00070B504000AD02068416821F008014160F9
:10190000FFF7BEFA05464FF47A7608E0012070BD75
:10191000FFF7B6FA401BB04201D9032070BD206822
:1019200040680007F4D5002070BD10B5401EB0F12E
:10193000807F01D3012010BD4FF0E02460610F21B2
:10194000601701F0ABFC0020A0610720206100209F
:1019500010BD70477047000070B590F83C20012A18
:101960002CD0012480F83C40022280F83D200368FE
:101970005A689D6822F070060A6832435A60104B1C
:1019800002689A420ED00F4B9A420BD0B2F1804FB0
:1019900008D00D4B9A4205D00C4B9A4202D00C4B0A
:1019A0009A4204D1496825F080031943916080F878
:1019B0003D40002180F83C10084670BD022070BDFB
:1019C000002C0140003401400004004000080040A9
:1019D000000C004010B5040003D094F83D0010B195
:1019E00007E0012010BD002084F83C00204600F0F4
:1019F0001FF8022084F83D00211D206801F0C0F985
:101A0000012084F8460084F83E0084F83F0084F802
:101A1000400084F8410084F8420084F8430084F8D0
:101A2000440084F8450084F83D00002010BD00000B
:101A300008B5154A0168154891420ED1C16941F0B7
:101A40001001C161C069012200F010000090002166
:101A50003620FFF7BBFA362010E00D4A914211D133
:101A6000C16941F02001C161C069022200F020007B
:101A7000009000213720FFF7A9FA3720BDE8084081
:101A8000FFF796BA08BD00000010004000100240A9
:101A90000014004090F83D10012901D0012070474A
:101AA000022180F83D100168CA6842F00102CA6054
:101AB00000680E4988420ED00D4988420BD0B0F123
:101AC000804F08D00B49884205D00B49884202D08C
:101AD0000A49884204D1816801F00701062903D030
:101AE000016841F00101016000207047002C0140B5
:101AF000003401400004004000080040000C004099
:101B00000168CA6822F00102CA6001680A6A41F2EB
:101B100011131A4207D10A6A9B101A4203D10A68AC
:101B200022F001020A60012180F83D100020704778
:101B300070472DE9F04104460068C66805694FF01A
:101B40000007A90713D5B10711D5F91E01610120BE
:101B50002077206880698007204602D0FFF7E8FFE1
:101B600004E000F07EF8204600F07CF82777680754
:101B700016D5700714D521686FF0040008610220A3
:101B800020772068806910F4407F204602D0FFF75C
:101B9000CFFF04E000F065F8204600F063F82777F7
:101BA000280715D5300713D521686FF008000861A4
:101BB000042020772068C0698007204602D0FFF704
:101BC000B7FF04E000F04DF8204600F04BF827770F
:101BD000E80616D5F00614D521686FF010000861EC
:101BE000082020772068C06910F4407F204602D08A
:101BF000FFF79EFF04E000F034F8204600F032F8D2
:101C00002777E80708D0F00706D021686FF00100B9
:101C10000861204600F028F8280608D5300606D5C9
:101C200021686FF0800008612046FFF792FE680689
:101C300008D5700606D521686FF04000086120467F
:101C400000F05CF8A8060AD5B00608D521686FF048
:101C5000200008612046BDE8F041FFF77BBEBDE8EB
:101C6000F08170477047000010B5164C01680022E3
:101C7000154B1648A1420CD14188491C89B24180BC
:101C80005B8899421DD34280BDE810401048FFF7A1
:101C90002CB9104CA14214D101884C1C04801B8823
:101CA00099420ED30C490280012008700B48FFF7BF
:101CB00027FF0C490A480860BDE810400AA001F05F
:101CC000DDBA10BD0010004034000020B400002038
:101CD000B81400200014004044000020201500200B
:101CE0008816002040000020B6A8CAB1C6F734B557
:101CF000BDCAB1BCE4C1CB0D0A000000704738B5C5
:101D0000044690F84200202801D0022038BD51B18D
:101D10004AB10120206300206063204601F0FCF9F5
:101D2000216B012901D0012038BD21680A6849686A
:101D3000009121680C3151E8002F42F0100241E877
:101D40000023002BF5D138BD18B5034690F84200AA
:101D5000202801D0022018BD61B15AB101201863BA
:101D600000205863184601F01FFA0028F3D1196BC0
:101D7000012901D0012018BD19680A68496800913D
:101D800019680C3151E8002F42F0100241E800249C
:101D9000002CF5D118BD00002DE9F0410D46044698
:101DA00000686E490127884225D1FF2D23D8FF22E4
:101DB0006B496C48FFF7A3FF6B4E3068016821F058
:101DC000040101602946664801F022FF6448817AD7
:101DD000432902D1C07A56287ED0614901F5FF70AF
:101DE00001F049FA3068016821F004010160FF2127
:101DF0005B48FEF7E2F95D49206888421BD1FF2D60
:101E000019D8FF225A495B48FFF779FF5A4E3068CC
:101E1000016821F00401016055492022FF31544836
:101E200001F0B5FE3068016821F004010160FF2176
:101E30004F48FEF7C2F951492068884222D1FF2D50
:101E400020D8FF224E494F48FFF759FF4E4E3068C9
:101E5000016821F0040101604FF6FF732A464849EA
:101E6000484800F027FC464880F8FC73017880F869
:101E7000FE113068016821F004010160FF21404833
:101E8000FEF79BF94149206888421BD1FF2D19D8E4
:101E9000FF223F493F48FFF732FF3F4E306801685D
:101EA00021F0040101603A491122FF31384801F064
:101EB0006EFE3068016821F004010160FF213448A2
:101EC000FEF77BF935492068884244D1FF2D37D889
:101ED000334C84F8FD5300E00DE004F1FF00FF21D6
:101EE0000646FEF76AF92A4621463046FEF74CF9C7
:101EF000072D1FD107E01A4901F2FD2001F0BBF9BF
:101F0000284807706EE794F8FF005A2812D194F819
:101F10000001A5280ED194F8020180280AD194F876
:101F20000301032806D194F8040118B994F80501B7
:101F30001F2803D02946304601F034FE01F0EAFEA6
:101F4000FF211748FEF739F9BDE8F041FF22144997
:101F50001548FFF7F9BEBDE8F081000000380140E8
:101F6000C0000020F8150020141700200044004095
:101F7000BE040020401600205817002000480040F2
:101F8000BC080020881600209C170020004C004050
:101F9000BA0C002068150020D01600200050004028
:101FA000B810002045000020B015002038B50446C8
:101FB00000683C4988420ED1FF223B493B48FFF76D
:101FC0009EFE3B480068016821F004010160FF218A
:101FD0003548FEF7F2F83749206888420ED1FF22D3
:101FE00035493648FFF78BFE35480068016821F017
:101FF00004010160FF213048FEF7DFF83149206815
:1020000088420ED1FF2230493048FFF778FE304831
:102010000068016821F004010160FF212A48FEF7F1
:10202000CCF82C49206888420ED1FF222A492B483F
:10203000FFF765FE2A480068016821F0040101608D
:10204000FF212548FEF7B9F826492068884228D1A3
:1020500025480025016808684868009008684868B5
:102060000090086848680090086848680090FF2160
:102070001E48FEF7A2F81D48FF21FF30FEF79DF82D
:102080001A48FF22014680F8FD531748FFF75CFE0F
:1020900017490E480860616CBDE8384015A001F092
:1020A000EDB838BD00380140C0000020F815002010
:1020B0001417002000440040BE04002040160020F9
:1020C0005817002000480040BC0800208816002057
:1020D0009C170020004C0040BA0C0020681500201E
:1020E000D016002000500040B0150020B81000208D
:1020F000400000205B484D495D2055415254352039
:102100006572726F72207265636F76657265642C9A
:1021100020636F64653D30782530386C580D0A00B7
:10212000F8B5016804460868CA684B6910F00F0FDB
:102130004FF0000559D003F0010602F490773743C1
:1021400065D0C10705D0D10503D5616C41F001010F
:102150006164410705D5D90703D0616C41F00201E4
:102160006164810705D5D90703D0616C41F0040192
:102170006164010707D502F02001314303D0616C8F
:1021800041F008016164616C00293AD0800604D5F1
:10219000900602D5204600F001FF20684069616C7E
:1021A000C0F38010090700D460B3204600F0C1FEE0
:1021B00020684069400621D52068143050E8001F8F
:1021C00021F0400140E80012002AF5D1E06BA8B1EF
:1021D0006D494163E06BFEF7F9FA002811D0E06B1E
:1021E000416B01B0BDE8F040084783060FD5930668
:1021F0000DD52046BDE8F84000F0D0BE2046FFF7E0
:10220000D5FEF8BD2046FFF7D1FE6564F8BD266B0C
:102210002023012E7CD1C6067AD5D60678D508684B
:102220004868009048694FF00206400640D5E16BCF
:10223000086840680004000CE8D0A28D8242E5D90D
:10224000E085886920282DD020680C3050E8001FD8
:1022500021F4807140E80012002AF5D12068143082
:1022600050E8001F21F0010140E80012002AF5D1DA
:102270002068143050E8001F21F0400140E80012AF
:10228000002AF5D184F84230256320680C3050E8EC
:10229000001F21F0100140E80012002AF5D1E06B88
:1022A000FEF770FA6663A08DE18D401A81B22AE0D4
:1022B000A08DE18D401A81B2E08D0028A6D00029C2
:1022C000A4D022680C3252E8000F20F4907042E84B
:1022D0000007002FF5D12068143050E8002F22F0BD
:1022E000010240E80027002FF5D184F84230256331
:1022F00020680C3050E8002F22F0100240E8002344
:10230000002BF5D166632046FFF746FDF8BDFFE7D9
:1023100005062BD5150629D594F841002128F5D1BD
:10232000A068B0F5805F01D12069B0B1206A411C7E
:102330002162216800784860E08C401E0004000C97
:10234000E084E3D12068C16821F08001C160206889
:10235000C16841F04001C160D8E7206A0088C0F33D
:1023600008004860206A801C2062E5E74006CDD561
:102370005006CBD5CA68204622F04002CA6084F8D5
:10238000413000F0E7F9C1E7352E000870B50400D0
:1023900004D094F84100002510B106E0012070BD82
:1023A00084F84050204600F023F8242084F84100AF
:1023B0002068C16821F40051C160204600F050FE41
:1023C0002068016921F4904101612068416921F090
:1023D0002A0141612068C16841F40051C16065640F
:1023E000202084F8410084F842006563002070BD1D
:1023F0002DE9F04786B000240094019402940394E0
:10240000054603689E48DFF87482071502210322FF
:10241000DFF870C280264FF4006A434537D1C369A4
:1024200043F40023C361C36903F400230493836965
:1024300043F0100383618069CDE9007100F0100062
:10244000CDE90320694667466046FEF713FCCDE9F7
:1024500000A4694638460294FEF70CFC8B4F8A486C
:10246000C7E90004C7E902463C617C61BC613846AB
:10247000FC61FEF767FB08B1FEF782F9EF63022209
:10248000012134207D62FEF7A1FD342033E0DFF826
:1024900000824FF00409434532D1C36943F48013ED
:1024A000C361C36903F480130493836943F0100389
:1024B0008361836903F010030493836943F020036D
:1024C00083618069039200F0200004904FF48050F3
:1024D000CDE9000169466046FEF7CCFBCDE90094EA
:1024E00069466C480294FEF7C5FB002201213520A5
:1024F000FEF76CFD3520FEF75BFD06B0BDE8F0870A
:10250000DFF894C1DFF89481634539D1836943F4DE
:1025100080438361836903F480430493836943F0B8
:10252000040383618069039200F0040004904FF477
:102530000070CDE9000169464046FEF79BFBCDE9FE
:102540000074694640460294FEF794FB4F4F54488E
:102550004437C7E90004C7E902463C617C61BC61BD
:102560003846FC61FEF7EEFA08B1FEF709F9EF63B1
:102570000022012125207D62FEF728FD2520BAE7F3
:10258000DFF820C1634539D1C36943F40033C36127
:10259000C36903F400330493836943F00403836144
:1025A0008069CDE9009100F00400CDE9032069467F
:1025B0004046FEF75FFB0820CDE90004694640462F
:1025C0000294FEF757FB314F354888371430C7E97E
:1025D0000004C7E902463C617C61BC613846FC618D
:1025E000FEF7B0FA08B1FEF7CBF8EF63012211460F
:1025F00026207D62FEF7EAFC26207CE7DFF8A8C0F3
:1026000063457FF47AAFC36943F48023C361C36930
:1026100003F480230493836943F008038361806992
:10262000CDE9007100F00800CDE903201F4F694695
:102630003846FEF71FFBCDE900A4694638460294F0
:10264000FEF718FB114F1648CC372838C7E90004AD
:10265000C7E902463C617C61BC613846FC61FEF71B
:1026600071FA08B1FEF78CF8EF63032201212720ED
:102670007D62FEF7ABFC27203DE70000004C0040E8
:10268000001002400010014030040240D01600202B
:102690000050004000140140003801400008014093
:1026A000580002400044004000480040000C014037
:1026B000704770472DE9F843044690F8410098466A
:1026C00016460D46202802D00220BDE8F88385B1C9
:1026D0007EB100206064212084F84100FEF7D0FB29
:1026E000A6848146E684A0682027B0F5805F02D0EA
:1026F00003E00120E9E7206910B12E4600250EE035
:1027000000260CE08021204600F069FDA8B9C6B182
:1027100016F8010B21684860E08C401EE084E08CD4
:102720004B464FF00002CDF800800028EAD14FF070
:102730004001204600F053FD40B184F84170032071
:10274000C3E735F8020BC0F30800E3E784F84170F3
:102750000020BAE77047FEE770B586B0002002900F
:102760002248816941F004018161816901F004011D
:102770000491816941F008018161816901F00801DA
:102780000491816941F0100181618069012500F0A7
:10279000100004900C20CDE90005154E0324694675
:1027A00003943046FEF766FA01220C213046FEF70C
:1027B00062FBCDE90045694630460394FEF75AFABC
:1027C000012203213046FEF756FBC0200394CDE9D9
:1027D0000005084C69462046FEF74CFA0122C0214C
:1027E0002046FEF748FB06B070BD00000010024016
:1027F00000100140000C0140194808B5416941F042
:1028000001014161416901F001010091416941F01B
:10281000020141614069002200F00200009011466F
:102820000D20FEF7D3FB0D20FEF7C2FB0022114660
:102830000F20FEF7CBFB0F20FEF7BAFB002211465C
:102840001020FEF7C3FB1020FEF7B2FB002211465A
:102850003A20FEF7BBFBBDE808403A20FEF7A8BBD4
:10286000001002402DE9F04385B000242D4800946B
:10287000019402940394816941F01001816181699E
:1028800001F010010491816941F0200181618169A9
:1028900001F020010491816941F0040181618169A5
:1028A00001F004010491816941F0080181618069AE
:1028B000DFF8748000F008000122049011464046C1
:1028C000FEF7D9FADFF8649046F20607012239468E
:1028D0004846FEF7D0FA012501AA112003260095EB
:1028E00082E8510069464046FEF7C4F90097039616
:1028F000CDE9015469464846FEF7BCF9280300902B
:102900000B48CDE9010569464846FEF7B3F90022B8
:1029100011462820FEF75AFB2820FEF749FB05B098
:10292000BDE8F0830010024000100140000C01409F
:1029300000002110094810B50749016006214160D7
:1029400040F6FF718160FEF7A1FA002803D0BDE8D0
:102950001040FDF715BF10BD00300040B814002036
:102960001CB5002419480194174900940160611EA8
:10297000C0E90114FEF7A0FE08B1FDF701FF102029
:102980008DF8040037208DF805008DF806400122EF
:1029900001A90E48FEF756FF08B1FDF7F1FE02202F
:1029A0008DF8000012208DF801008DF8020024201F
:1029B0008DF80300012269460448FEF7E1FE002875
:1029C00001D0FDF7DDFE1CBD00280040C41400202E
:1029D0001CB500240F4800940D490194016041F694
:1029E0001F41C0E9011442F20F71C1608021816171
:1029F000FEF7F0FF08B1FDF7C3FE009469460548F5
:102A00000194FEF7A9FF002801D0FDF7B9FE1CBD17
:102A100000100040D81400201CB500240F4800947A
:102A20000D490194016041F61F41C0E9011442F2D1
:102A30000F71C16080218161FEF7CCFF08B1FDF705
:102A40009FFE0094694605480194FEF785FF002823
:102A500001D0FDF795FE1CBD00140040201500209C
:102A60000C4810B50A4901604FF41651416000212D
:102A700081600C22C160C0E904128161C161FFF76D
:102A800085FC002803D0BDE81040FDF779BE10BDDD
:102A9000004C00406815002010B5104C0E480C2169
:102AA00020604FF4E13060600020A060E060C4E985
:102AB0000401A061E0612046FFF768FC08B1FDF762
:102AC0005FFE2068C16841F02001C1602068C168D4
:102AD00041F01001C16010BD00500040B015002051
:102AE0000C4810B50A4901604FF4E1314160002102
:102AF00081600C22C160C0E904128161C161FFF7ED
:102B000045FC002803D0BDE81040FDF739BE10BDDC
:102B100000380140F81500200C4810B50A49016042
:102B20004FF416514160002181600C22C160C0E960
:102B300004128161C161FFF729FC002803D0BDE8C0
:102B40001040FDF71DBE10BD00440040401600209F
:102B50000C4810B50A4901604FF41651416000213C
:102B600081600C22C160C0E904128161C161FFF77C
:102B70000DFC002803D0BDE81040FDF701BE10BDDC
:102B80000048004088160020FEE7FEE77047010974
:102B900001EB810100F00F0000EB4100C0B2704773
:102BA00070B50446FEF76CF905464FF47A7606E0F8
:102BB000FEF766F9401BB04201D9032070BD2068C2
:102BC00040688006F4D52068416841F010014160FA
:102BD000002070BD70B504460068416821F0100106
:102BE0004160FEF74DF905464FF47A7607E000BFE5
:102BF000FEF746F9401BB04201D9032070BD2068A2
:102C000040688006F4D5002070BD0168086A496AF2
:102C100089B241EA00407047006881698AB2C1699F
:102C20008BB2816989B28A4203D0C06961F31F40C7
:102C3000704743EA02407047F0B56424C1EBC1031A
:102C40000927A500072603EB01130329B3FBF7F1BE
:102C500000F5FA60114401440AD2401EB0FBF4F2C0
:102C600001EB9001B0FBF5F0891A0844001D08E063
:102C7000B0FBF4F201EB9001B0FBF5F0891A0844C7
:102C8000801CB0FBF6F106FB1100C0B2F0BD70B5C0
:102C90000D4606460024FFF783FF48B93168280C2B
:102CA00008623168A8B248623046FFF793FF00B16E
:102CB0000124204670BD70B50D4606460024FFF77E
:102CC0006FFF48B93168280C88613168A8B2C861C3
:102CD0003046FFF77FFF00B10124204670BD7047EA
:102CE000FEF70AB970B596B028216846FDF765FA77
:102CF00014210AA8FDF761FA18210FA8FDF75DFA63
:102D000001240D20009000254FF48030CDE90254BD
:102D10000190049402260694CDE907604FF4E01078
:102D200009906846FEF738FB08B172B6FEE70F203F
:102D3000CDE90A064FF48060CDE90C5002210AA8C3
:102D40000E95FEF74DFA08B172B6FEE74FF48070AB
:102D5000CDE90F400FA8FEF7CDF9002801D072B6DB
:102D6000FEE716B070BD70470148FEF7E2BE0000F6
:102D7000D81400200148FEF7DCBE0000201500201A
:102D8000F0B50268204C214D214E224F224B4FF0CE
:102D9000804CA04209D0984207D0604505D0A84297
:102DA00003D0B04201D0B84204D122F0700E4A687C
:102DB00042EA0E02A04209D0984207D0604505D0F1
:102DC000A84203D0B04201D0B84203D122F44075EA
:102DD000CA682A434D6922F080022A4302608A6849
:102DE000C2620A688262A04201D0984201D1096998
:102DF0000163012141610169C90703D0016921F023
:102E000001010161F0BD0000002C01400004004000
:102E100000080040000C0040003401400148FFF76A
:102E20007FB90000681500200148FFF779B900005C
:102E3000B015002010B5406A0021C185C184FFF79C
:102E4000B5F810BD70B5446A2068406994F8411027
:102E5000C0F3C0100025212904D118B1E584204613
:102E600000F08EF82068406994F84210C0F380109A
:102E7000222904D118B1E585204600F05AF8606C8B
:102E800040F0100060642046FFF790F870BD10B568
:102E90000146406A096809684FF0000289062ED48D
:102EA000C28501680C3151E8003F23F4807341E88A
:102EB0000034002CF5D10168143151E8003F23F0B3
:102EC000010341E80034002CF5D10168143151E8C8
:102ED000003F23F0400341E80034002CF5D12021CD
:102EE00080F84210016B012909D101680C3151E8C9
:102EF000003F23F0100341E80034002CF5D1426379
:102F0000016B012902D0FFF7D3FB10BD818DFEF7C5
:102F100043FF10BD10B5406A01214163016B0129D7
:102F200002D0FFF7C6FB10BD818D4908FEF734FFC4
:102F300010BD01680C3151E8002F22F4907241E875
:102F40000023002BF5D10168143151E8002F22F045
:102F5000010241E80023002BF5D1016B012909D1C1
:102F600001680C3151E8002F22F0100241E80023E3
:102F7000002BF5D1202180F8421000210163704719
:102F800001680C3151E8002F22F0C00241E8002313
:102F9000002BF5D1202180F84110704708B590F83A
:102FA0004210222901D0022008BD82684FF48053CC
:102FB0009A4201D1016921B1816A9A421BD04AB17A
:102FC0000AE00268816A5268C2F308020A80816AD4
:102FD000891C08E0026972B10268526802F07F023F
:102FE0000A70816A491C8162C18D491E0904090C5D
:102FF000C18503D01BE002685268F1E70168CA6826
:1030000022F02002CA600168CA6822F48072CA6095
:1030100001684A6922F001024A61202180F84210C9
:1030200000214163026B012A03D0FFF741FB00201E
:1030300008BD016301680C3151E8002F22F0100235
:1030400041E80023002BF5D101680A68D20602D5B9
:103050000A6849680091818DFEF79EFEE7E700004F
:1030600070B5044600680169E26821F440511143DB
:1030700001612169A0680843616908432168CA6841
:1030800041F20C639A430243CA6020684169A26915
:1030900021F44071114341611E492068884202D1E8
:1030A000FEF744F901E0FEF731F900EBC00101EB56
:1030B0000012606864218000B2FBF0F3B3FBF1F30F
:1030C0006FF018067343B2FBF0F5B2FBF0F605EBB8
:1030D0008305322303EB0515B5FBF1F5B6FBF1F6DD
:1030E00005F0F00505EB0615B2FBF0F6B2FBF0F0CB
:1030F000B0FBF1F06FF01802504306EB800003EBD9
:103100000010B0FBF1F0216800F00F002844886047
:1031100070BD00000038014038B5816204468285E8
:10312000002013466064222284F84220E56B1B4A8B
:10313000AA62E56B1A4AEA62E56B1A4A2A63E26BF5
:1031400050630A462168E06B091DFDF739FD2068D0
:10315000016840680090206948B120680C3050E850
:10316000001F41F4807140E80012002AF5D1206868
:10317000143050E8001F41F0010140E80012002A1D
:10318000F5D12068143050E8001F41F0400140E8BC
:103190000012002AF5D1002038BD00008F2E000853
:1031A000152F0008452E000881628285C285002106
:1031B0004164222180F84210016921B10168CA6886
:1031C00042F48072CA6001684A6942F001024A61B1
:1031D0000068C16841F02001C160002070472DE9FE
:1031E000F843984617460D460446089E24E0701C96
:1031F00022D0FDF745FEA0EB0800B0421AD8CEB1B0
:103200002068C168490717D5802D15D0402D13D0EF
:103210000168C94309070FD4016800254068009080
:103220002046FFF786FE0820606484F840500120A5
:10323000BDE8F8830320FBE72068006835EA00005A
:1032400004D00020B842D2D00020F1E70120F9E7F5
:103250000148FEF765BF0000F81500200148FEF7A1
:103260005FBF0000401600200148FEF759BF000074
:1032700088160020FEE7FCF7ABBF00000FB4054B3B
:1032800010B503A9044A029800F0EAF810BC5DF8F2
:1032900014FB0000F53C0008900000200907090E0F
:1032A000002804DB00F1E02080F80014704700F0F3
:1032B0000F0000F1E02080F8141D704702E008C8FC
:1032C000121F08C1002AFAD170477047002001E0A0
:1032D00001C1121F002AFBD1704700002DE9FF5FDA
:1032E00082B00021DDE90430020DDDF840B0034377
:1032F00018D044F61050A2F2FF3242431514119830
:1033000001281FD0A5EB0B00401C5FEA000A4FF01C
:1033100000064E4FDFF83891B046504615D5CAF139
:10332000000413E0119801244AA3012801D16FEA97
:103330000B010298119AC0E90031C0E9024206B0BF
:10334000BDE8F09FCBF10000DFE704460021404AD2
:10335000491842EB0450CDE9001012E0E00707D015
:1033600032463B4640464946FCF7E5FF80468946E3
:1033700032463B4610461946FCF7DDFF06460F462F
:103380006410002CEAD1DDE90401DDE90023BAF183
:10339000000F06DAFCF7CFFF42464B46FCF7CBFFA7
:1033A00005E0FDF73AF842464B46FDF736F804468D
:1033B0000E460022284BFDF77DF903D84FF0FF3071
:1033C000014607E00022254B20463146FCF70CFF62
:1033D000FDF757F9102409E0002C0ADB0A2200232C
:1033E000FDF7A0F8039B30321A55641E50EA010223
:1033F000F2D1641C039AC4F111031444119A012AF6
:1034000003D0012208430DD10AE0084304D0002074
:103410004FF0110B119072E7A3EB0B056D1E0DE041
:103420005B4504DD4FF0000205F1010504E003DA1D
:103430004FF00002A5F10105002AECD00298119985
:10344000C0E90231C0E9004579E7000000001440FE
:103450000000F03F300000000000F0430000E03FBB
:103460002DE9FF4F95B09B468946064600250FE2A1
:10347000252877D100242746F84A0121059400E049
:10348000044316F8013F203B01FA03F01042F7D144
:1034900030782A2811D06FF02F033078A0F1300255
:1034A000092A16D8059A44F0020402EB820203EBC3
:1034B00042021044761C0590EFE759F8042B059260
:1034C000002A03DA504244F40054059044F0020408
:1034D000761C30782E2816D116F8010F44F004041B
:1034E0002A280DD06FF02F023078A0F13003092B7D
:1034F00009D807EB870302EB4303C718761CF3E7F1
:1035000059F8047B761C30786C280FD006DC4C28E8
:1035100017D068280DD06A2814D104E0742810D080
:103520007A280FD10DE044F400140AE044F480142A
:1035300001E044F440147278824202D104F5801410
:10354000761C761C307866280BD013DC582877D090
:1035500009DC002875D04528F6D04628F4D0472845
:103560001AD19DE118E0632835D0642879D0652808
:1035700012D195E1702873D008DC6728F1D0692852
:103580006FD06E280DD06F2806D1B5E073282CD0EF
:10359000752875D0782874D05A46179990476D1CB5
:1035A00075E1C4F30250022809D003280DD0D9F8E0
:1035B000001004280DD00D6009F1040967E1D9F865
:1035C0000010EA17C1E90052F6E7D9F800100D80A3
:1035D000F2E70D70F0E719F8041B8DF800100020D9
:1035E0008DF80100EA46012003E059F804AB4FF0E2
:1035F000FF3061074FF0000102D40DE008F1010136
:103600008846B9420FDA8045F8DB1AF8081000291D
:10361000F4D108E008F1010188468142FADB1AF88A
:1036200008100029F6D105985B46A0EB0807214653
:103630003846179A00F094FA284400EB080507E092
:103640004DE029E10DE01AF8010B5A461799904711
:10365000B8F10108F7D25B4621463846179A13E1C4
:1036600042E00A220092C4F302524FF0000A022AFA
:1036700008D059F804CB032A4FEAEC710AD00DE0C8
:1036800029E02AE009F1070121F00702F2E802C16E
:10369000914609E00FFA8CFC4FEAEC71042A03D141
:1036A0004FFA8CFC4FEAEC71002907DA0A46002138
:1036B000DCF1000C61EB02012D2202E0220504D5B1
:1036C0002B228DF80420012203E0E20701D0202202
:1036D000F7E7904659E00A2102E010220DE01021A0
:1036E0004FF0000A00910BE010224FF0000A44F066
:1036F00004040827009203E008224FF0000A009219
:10370000C4F30252022A05D059F804CB0021032A3F
:1037100008D009E009F1070121F00702F2E802C12F
:10372000914605E01FFA8CFC042A01D10CF0FF0C35
:103730004FF00008220728D5702806D0009B83F0A0
:10374000100353EA0A0305D00EE040228DF804204E
:10375000012208E05CEA010206D030228DF8042044
:103760008DF8050002229046009B83F0080353EA7F
:103770000A030AD15CEA010201D1620705D53022B1
:103780008DF804204FF001087F1E582804D034A083
:1037900003900EA802900DE036A0F9E7534660466C
:1037A000009AFCF7BFFE84460398825C0298401E94
:1037B000029002705CEA0100F0D1029806A9081A92
:1037C00000F1200A600702D524F4803400E00127CC
:1037D000574502DDA7EB0A0000E0002000EB0A01DC
:1037E000009005984144401A0590E00306D45B46DA
:1037F0002146179A059800F0B3F90544002706E022
:1038000001A85A46C05D179990476D1C7F1C47451B
:10381000F6DBE0030CD55B462146179A059800F0CD
:103820009FF9054404E030205A46179990476D1CD3
:103830000099481E00900029F5DC08E002980299E2
:103840005A460078491C0291179990476D1CBAF1AD
:103850000001AAF1010AF1DC65E10000092801007C
:1038600030313233343536373839616263646566F6
:1038700000000000303132333435363738394142B8
:10388000434445460000000000F058F90544761C0A
:10389000307800287FF4ECAD19B02846BDE8F08FF1
:1038A000620700D4062709F1070222F0070CFCE8A2
:1038B0000223E14603F000485FEA080C02D00FF251
:1038C000702C0DE05FEA045C02D50FF2682C07E073
:1038D0005FEAC47C02D00FF2602C01E0AFF2700C02
:1038E0004FF0FF3823F00043CDF850C065280CD0CE
:1038F00006DC452809D046281DD047283DD13DE0AB
:10390000662818D067287ED138E00021112F01DB0E
:10391000112000E0781CCDE9000106A90EA8FFF7F0
:10392000DDFCDDE90F010E9A03910021009207F101
:10393000010A04914DE04FF000400097CDE90110DD
:1039400006A90EA8FFF7CAFCDDE90F0203920E9B41
:1039500011990022DDF80CA00093049211B9791C92
:1039600000EB010AB7EB0A0004D4C0F1FF3007F105
:10397000010A0490AAEB0700019044E0012F00DA4D
:1039800001270021112F01DD112000E03846CDE98B
:10399000000106A90EA8FFF7A1FCDDE90F010E9AB0
:1039A0000391002104910092BA4621070CD4039997
:1039B000514500DA8A46BAF1010F05DD009AAAF1F5
:1039C0000101515C302908D0B84202DA10F1040F2D
:1039D00006DA0121CDE9011015E0AAF10101E9E7BC
:1039E000002805DC049901440491AAEB000102E0DF
:1039F000411C514500DD8A460499401A401C019043
:103A00004FF000400290200704D40198504501DB9C
:103A1000CDF8048000208DF84F0002980DF14F077B
:103A2000B0F1004F25D02B200E9002984FF00208E5
:103A300000280CDA404202902D200E9007E00A2167
:103A40000298FCF759FD3031029007F8011DB8F1DA
:103A50000001A8F10108F2DC02980028EFD1791EDC
:103A60000E980870307800F0200040F0450007F80C
:103A7000020D12A8C01B00F107081498007800B1CD
:103A8000012000EB0A01019801EBE0710598414427
:103A9000401A401E0590E00306D45B462146179A63
:103AA000059800F05DF805441498007818B15A465E
:103AB000179990476D1CE00324D55B462146179A61
:103AC000059800F04DF805441CE00498002807DB39
:103AD000DDE90301884203DD0098405C179901E0AD
:103AE000179930205A469047049805F10105401C6B
:103AF00004900198401E019004D12E205A46179937
:103B000090476D1CBAF10001AAF1010ADDDC05E065
:103B100017F8010B5A46179990476D1CB8F1000130
:103B2000A8F10108F4DC5B462146179A0598ABE63C
:103B30002D0000002B000000200000002DE9F041C6
:103B4000044600251E461746880404D405E039467D
:103B50002020B0476D1C641EF9D52846BDE8F081D1
:103B60002DE9F041044600251E469046C80301D5C4
:103B7000302700E02027880404D505E04146384678
:103B8000B0476D1C641EF9D52846BDE8F0810023BE
:103B9000FF2A05D8C25CCA545B1CDBB2FF2BF9D3E9
:103BA000704700002DE9F041002480460D461029A1
:103BB00000D910250C4F0B4E0CA03E60FFF75EFBAA
:103BC00007E000BF18F804100EA0FFF757FB641CB5
:103BD000A4B2AC423E60F5D3BDE8F0410BA0FFF7C4
:103BE0004DBB000088160020400000205B484D4976
:103BF0005D205258206C656E3D2564206865783DD7
:103C00000000000025303258200000000D0A00009E
:103C10002DE9F047002506460C46302900D930240E
:103C2000DFF870901A4F1CA0C9F80070FFF726FB50
:103C3000B8464F460CE0715DC7F80080A1F1200046
:103C40005E2800D92E211AA0FFF718FB6D1CADB21B
:103C5000A542F0D34546B94616A0C7F80080FFF745
:103C60000DFB15A03D60FFF709FBA84600274D4658
:103C700005E0F15D14A0FFF701FB7F1CBFB2A74276
:103C8000C5F80080F5D3BDE8F0470AA0FFF7F6BA03
:103C900088160020400000205B574946495D2052AD
:103CA00058206C656E3D25642061736369693D0031
:103CB000256300000D0A00005B574946495D20520C
:103CC00058206865783D00002530325820000000FB
:103CD00042F2283148434FF0E021486100208861DA
:103CE00001220A610A69D30701D0D203FAD508611B
:103CF0008861704738B504468DF8000004480223F7
:103D0000012269460068FEF7D5FC204638BD000058
:103D1000400000202DE9F05FA648002690F8FD73D2
:103D2000042F73D390F8FF105A296FD190F8001127
:103D3000A5296BD1DFF884929F4D0446C9F8005045
:103D4000804690F8012190F802119DA004F2011420
:103D5000FFF794FA6078A24C4FF0010A80281DD03A
:103D6000832853D1072F51D3B8F80301C9F8005065
:103D700090FA90FB59469BA0FFF780FA5846B3464D
:103D8000B0F5945F7DD035DC00F55F60B0F5005094
:103D900078D020283BD0402875D178E0072F35D344
:103DA00098F803114046032906D190F804211AB966
:103DB00090F805211F2A0AD0C9F8005090F8053163
:103DC00098F80421BDE8F05F8B48FFF757BAFDF77C
:103DD00057F82169411AB1F5966F17D3206184F81D
:103DE00002A084F801A0C9F80050BDE8F05F83A0EC
:103DF000FFF744BA00F55760B0F500507DD0B0F53C
:103E0000E87F7BD0B0F5F87FC6D1CCE0CFE0207959
:103E1000122100EB400202EB0012814800EB42004D
:103E2000FCF7CBF92279DFF8F8C102EB420101EB94
:103E300002137B49072001EB4301434602EB420892
:103E400008EB021281F824B00CEB42020CE000BF38
:103E500002F806C092F824C0401C0CF1010C761C3C
:103E600082F824C0C0B2F6B2B84208D203EB000C0C
:103E70009CF8FFC0BCF1FF0F01D0112EE8D369A060
:103E800002E048E05DE055E0C9F8005040E02079EC
:103E9000122100EB400202EB0012614800EB4200ED
:103EA0001230FCF78AF92279DFF874C102EB420183
:103EB00001EB02135A49072001EB4301434602EB91
:103EC000420808EB021281F825B00CEB42020DE02B
:103ED00002EB0608401C88F812C092F825C0761C38
:103EE0000CF1010C82F825C0C0B2F6B2B8420BD278
:103EF00003EB000C9CF8FFC001E01CE050E0BCF1BB
:103F0000FF0F01D0112EE3D34AA01231C9F800509F
:103F1000FFF7B4F949E0FCF7B3FFA169411AB1F525
:103F2000966F42D3A06184F802A047A0C9F8005060
:103F3000FFF7A4F939E084F800B04BA0C9F80050AD
:103F4000F6E7DFF89C9007264FF0010B09F10A090C
:103F50000DE000BF194809F80B10056049A0FFF7F4
:103F60008DF9761C0BF10100F6B200F0FF0BBE429A
:103F700008D208EB060090F8FF10FF2902D0BBF131
:103F8000040FE7D30D4E40A0356099F8033099F83F
:103F9000022099F80110FFF771F93EA03560C7E7DC
:103FA00084F803A001E000F069F984F801A0BDE8FD
:103FB000F09F0000B810002088160020400000206C
:103FC0005B484D495D20636D643D30782530325843
:103FD000206C656E3D3078253032580D0A000000A7
:103FE000480000205B484D495D20616464723D30AB
:103FF00078253034580D0A00704300085B484D495D
:104000005D206B6579206576656E743A20636F6E0E
:104010006E65637420636F6E6669726D0D0A0000D1
:10402000E0170020686D695F737369643A25732136
:104030000D0A0000686D695F70617373776F726459
:104040003A2573210D0A00005B484D495D20636FDE
:104050006E6669726D20636F6E6E65637420707238
:1040600065737365640D0A00C8A1EFBFBDEFBFBDE6
:10407000EFBFBDEFBFBDEFBFBDEFBFBD77696669E5
:10408000210D0A0025630000256420256420256495
:104090000D0A00002020EFBFBDEFBFBDEFBFBDEF99
:1040A000BFBDEFBFBDEFBFBDEFBFBDEFBFBDD1BB5C
:1040B000EFBFBDC8A1210D0A0000000020B10128FA
:1040C00008D1084600F0ECB8A1F58850503801D16D
:1040D00000F018B970470000074810B50021C180F2
:1040E00001814FF490510120FFF7E8FFBDE8104037
:1040F0003220FFF7EDBD00004800002088B0FCF73B
:1041000003FFFEF7EFFDFEF7ADFBFEF775FBFEF7D5
:1041100011FCFEF725FCFEF75BFCFEF77DFCFEF7CD
:10412000DFFCFEF7F9FCFEF713FDFEF799FCFEF746
:10413000B3FC202226A16846FCF726F84FF6FF7351
:104140001E2269462A48FEF7B5FA2A49284808601F
:1041500029A0FFF793F8FEF7FFFAFF222F49304816
:10416000FDF7CDFD2F480068016821F004010160D2
:10417000FF222D492D48FDF7C2FD2D48006801683A
:1041800021F004010160FF222A491948FDF7B7FD1B
:1041900029480068016821F004010160FF222749D5
:1041A0002748FDF7ACFD27480068016821F00401AD
:1041B0000160FF2224492548FDF7C6FD2448FDF78C
:1041C00069FC6420FFF784FDFFF786FFFEE700002F
:1041D0000D0A5B424F4F545D2055534152543320DA
:1041E00064697265637420616C6976650D0A00000C
:1041F00088160020400000205B424F4F545D207025
:1042000072696E7466206F76657220555341525400
:104210003320616C6976650D0A000000C000002043
:10422000F815002014170020BE04002040160020BE
:1042300058170020BC0800209C170020BA0C002052
:1042400068150020D0160020B8100020B0150020FE
:10425000D8140020012080F31388BFF34F8F054846
:104260000168054A01F4E06111430160BFF34F8F1B
:1042700000BFFDE70CED00E00400FA05074810B5AB
:1042800045F2AA51C18045F6A521018104210120F2
:10429000FFF714FFBDE81040FFF7DCBF4800002027
:1042A0000EB513A30ECB8DE80E00010A8DF8041095
:1042B00012498DF805004FF6FF73C888020A8DF881
:1042C00006208DF8070008890A22010A8DF80810D7
:1042D0008DF8090069460A48FEF7ECF908480068BD
:1042E0000168C9434906FBD40A20FFF7F1FC0EBD63
:1042F0005AA5078210800001010E0000480000202E
:10430000B015002010B54FF6FF7314220749084876
:10431000FEF7D0F9064800680168C9434906FBD496
:10432000BDE810400A20FFF7D3BC00006B0000205E
:10433000B0150020010202030405060708090A0B54
:104340000C0D0E0F101001020203040506070809E8
:104350000A0B0C0D0E0F10100000000000000000F2
:10436000010203040607080900000000010203041B
:104370005B484D495D206B6579206576656E7420DC
:10438000756E68616E646C65643A20706167653D46
:10439000307825303258206B65793D3078253032C1
:1043A000582076616C75653D3078253032580D0A9D
:1043B00000000000D443000800000020940000002A
:1043C000BC32000868440008940000209C1B0000D8
:1043D000CC320008000000000000000000000000D7
:1043E00000000000000000000000803F0000803F4F
:1043F0000000803F0000803F0000803F0000803FC1
:104400000000803F0000803F3C00140068012C0148
:104410007800000088160020000000000000000066
:1044200000000000000020303030000000000000DC
:1044300000000000000000005AA504831150075A34
:10444000A511821150001000110012001300140079
:10445000150017000100000010000000000000001F
:0844600000127A0000000000C8
:0400000508000131BD
:00000001FF
